:1000000009C021C020C02FC01EC01DC046C060C096
:100010001AC019C011241FBECFE9CDBF10E0A0E661
:10002000B0E0E6E4F1E002C005900D92AA36B10717
:10003000D9F710E0AAE6B0E001C01D92AE36B107D4
:10004000E1F751D07EC0DCCF87EF87BB88E088BB6B
:10005000089583E083BF8EE089BF84E586BF85ED88
:1000600089BD789408951F920F920FB60F921124B4
:100070008F93C49880916000883018F48F5F8093CC
:10008000600080916000893010F0109260008F91C4
:100090000F900FBE0F901F9018951F920F920FB6E2
:1000A0000F9211248F93EF93FF93E0916000E8305B
:1000B00038F4F0E0EF59FF4F8081882309F4C49AA7
:1000C000FF91EF918F910F900FBE0F901F90189599
:1000D0001F920F920FB60F921124C49A0F900FBE69
:1000E0000F901F901895B0DFB4DF41E039E08091A8
:1000F0006B0080936C0021E0B39920E020936B00AB
:10010000882321F481E090E0213011F080E090E03C
:1001100080936A00882341F080916D00882321F448
:1001200040936D003093600080916000883019F436
:1001300010926D00C09A809160008830C0F6C0981F
:06014000D6CFF894FFCFBA
:0A01460008000100000001010000A4
:00000001FF
